{
  "transactions": [
    {
      "hash": "0x9d36cf06d87eb96504eb2233e65f94ee71378a798e8c4685bda46afba32932d7",
      "transactionType": "CALL",
      "contractName": null,
      "contractAddress": "0xd94639ba91cfe09fc2107cc81a59cf75081eadb8",
      "function": "grantRole(bytes32,address)",
      "arguments": [
        "0x9f2df0fed2c77648de5860a4cc508cd0818c85b8b8a1ab4ceeef8d981c8956a6",
        "0xAfd378303EaF596FE90e994B87A55E1ef9eEBdBd"
      ],
      "transaction": {
        "from": "0x6eed1727a7a2b7773f256708fb99bfc246270502",
        "to": "0xd94639ba91cfe09fc2107cc81a59cf75081eadb8",
        "gas": "0x118ce",
        "value": "0x0",
        "input": "0x2f2ff15d9f2df0fed2c77648de5860a4cc508cd0818c85b8b8a1ab4ceeef8d981c8956a6000000000000000000000000afd378303eaf596fe90e994b87a55e1ef9eebdbd",
        "nonce": "0xc",
        "chainId": "0x14a34"
      },
      "additionalContracts": [],
      "isFixedGasLimit": false
    }
  ],
  "receipts": [
    {
      "status": "0x1",
      "cumulativeGasUsed": "0x7373f",
      "logs": [
        {
          "address": "0xd94639ba91cfe09fc2107cc81a59cf75081eadb8",
          "topics": [
            "0x2f8788117e7eff1d82e926ec794901d17c78024a50270940304540a733656f0d",
            "0x9f2df0fed2c77648de5860a4cc508cd0818c85b8b8a1ab4ceeef8d981c8956a6",
            "0x000000000000000000000000afd378303eaf596fe90e994b87a55e1ef9eebdbd",
            "0x0000000000000000000000006eed1727a7a2b7773f256708fb99bfc246270502"
          ],
          "data": "0x",
          "blockHash": "0xef53bc0ac72dd3c0bcee63dd88f75c0bee2df752b475babdcc85491bc8117d4e",
          "blockNumber": "0x1a85e24",
          "blockTimestamp": "0x68641b28",
          "transactionHash": "0x9d36cf06d87eb96504eb2233e65f94ee71378a798e8c4685bda46afba32932d7",
          "transactionIndex": "0x2",
          "logIndex": "0xb",
          "removed": false
        }
      ],
      "logsBloom": "0x00000004000000000000000000000000000000000000000000000000000000000000040000000000000000000000004000000800000000000000000000000000000000000000000000000000100000000000000000000000000000000000000000000000000000000000000000000000100000000000000000000000001000000000000000000000000100000008000000000000000000000000000000000000000000000000000000000000402000000000000000000000001000000000000000000000000000000000000000000000001000000000000100000100000000000000000000000000000000000000000000000000000000000000000000000000",
      "type": "0x2",
      "transactionHash": "0x9d36cf06d87eb96504eb2233e65f94ee71378a798e8c4685bda46afba32932d7",
      "transactionIndex": "0x2",
      "blockHash": "0xef53bc0ac72dd3c0bcee63dd88f75c0bee2df752b475babdcc85491bc8117d4e",
      "blockNumber": "0x1a85e24",
      "gasUsed": "0xcb4d",
      "effectiveGasPrice": "0xf430e",
      "from": "0x6eed1727a7a2b7773f256708fb99bfc246270502",
      "to": "0xd94639ba91cfe09fc2107cc81a59cf75081eadb8",
      "contractAddress": null,
      "l1BaseFeeScalar": "0x44d",
      "l1BlobBaseFee": "0x1",
      "l1BlobBaseFeeScalar": "0xa118b",
      "l1Fee": "0xe7d925b39",
      "l1GasPrice": "0x7bcc82233",
      "l1GasUsed": "0x6a4"
    }
  ],
  "libraries": [],
  "pending": [],
  "returns": {},
  "timestamp": 1751391014313,
  "chain": 84532,
  "commit": "14b45af"
}