{
  "transactions": [
    {
      "hash": "0x9c9bd793b121b077fd1729b52d6d312e86104ad9945a219cd94ccc659769af83",
      "transactionType": "CALL",
      "contractName": null,
      "contractAddress": "0xd94639ba91cfe09fc2107cc81a59cf75081eadb8",
      "function": "mint(address,uint256,string)",
      "arguments": [
        "0xAfd378303EaF596FE90e994B87A55E1ef9eEBdBd",
        "10",
        "https://remilio.org/remilio/json/979"
      ],
      "transaction": {
        "from": "0xafd378303eaf596fe90e994b87a55e1ef9eebdbd",
        "to": "0xd94639ba91cfe09fc2107cc81a59cf75081eadb8",
        "gas": "0x32e92",
        "value": "0x0",
        "input": "0xd3fc9864000000000000000000000000afd378303eaf596fe90e994b87a55e1ef9eebdbd000000000000000000000000000000000000000000000000000000000000000a0000000000000000000000000000000000000000000000000000000000000060000000000000000000000000000000000000000000000000000000000000002468747470733a2f2f72656d696c696f2e6f72672f72656d696c696f2f6a736f6e2f39373900000000000000000000000000000000000000000000000000000000",
        "nonce": "0x0",
        "chainId": "0x14a34"
      },
      "additionalContracts": [],
      "isFixedGasLimit": false
    }
  ],
  "receipts": [
    {
      "status": "0x1",
      "cumulativeGasUsed": "0x1a4630",
      "logs": [
        {
          "address": "0xd94639ba91cfe09fc2107cc81a59cf75081eadb8",
          "topics": [
            "0xc3d58168c5ae7397731d063d5bbf3d657854427343f4c083240f7aacaa2d0f62",
            "0x000000000000000000000000afd378303eaf596fe90e994b87a55e1ef9eebdbd",
            "0x0000000000000000000000000000000000000000000000000000000000000000",
            "0x000000000000000000000000afd378303eaf596fe90e994b87a55e1ef9eebdbd"
          ],
          "data": "0x0000000000000000000000000000000000000000000000000000000000000000000000000000000000000000000000000000000000000000000000000000000a",
          "blockHash": "0x81c3cf1554fc83471c2f2d7b1ebb810a016a1dd5784a5da80af6887cf23a42b6",
          "blockNumber": "0x1a85f78",
          "transactionHash": "0x9c9bd793b121b077fd1729b52d6d312e86104ad9945a219cd94ccc659769af83",
          "transactionIndex": "0x7",
          "logIndex": "0x2c",
          "removed": false
        }
      ],
      "logsBloom": "0x00000000000000000000000000000000000000000000000000000000000000000000040000000000000000000000000000000000000000000000000000002000000000000000000000000000100000000000000000000000000000000000000000000000020000000000000000000800000000000000000000000000000000000000000000000000000000000008000000000000000000000000000000000000000000000000000000000000402000000000000000000000000000000000000000000000000000000000000000000000000000000008000000000100000020000000000000000000000000000000000000000000000000000000080000000000",
      "type": "0x2",
      "transactionHash": "0x9c9bd793b121b077fd1729b52d6d312e86104ad9945a219cd94ccc659769af83",
      "transactionIndex": "0x7",
      "blockHash": "0x81c3cf1554fc83471c2f2d7b1ebb810a016a1dd5784a5da80af6887cf23a42b6",
      "blockNumber": "0x1a85f78",
      "gasUsed": "0x22cf9",
      "effectiveGasPrice": "0xded60",
      "from": "0xafd378303eaf596fe90e994b87a55e1ef9eebdbd",
      "to": "0xd94639ba91cfe09fc2107cc81a59cf75081eadb8",
      "contractAddress": null,
      "l1BaseFeeScalar": "0x44d",
      "l1BlobBaseFee": "0x1",
      "l1BlobBaseFeeScalar": "0xa118b",
      "l1Fee": "0xd26465b07",
      "l1GasPrice": "0x5b785949f",
      "l1GasUsed": "0x829"
    }
  ],
  "libraries": [],
  "pending": [],
  "returns": {},
  "timestamp": 1751391697146,
  "chain": 84532,
  "commit": "14b45af"
}