{
  "transactions": [
    {
      "hash": "0x02e5c5fab50853cfb01c16d22cdef4b9a3b0862a2ef59966ba2066de8d675659",
      "transactionType": "CALL",
      "contractName": null,
      "contractAddress": "0xd94639ba91cfe09fc2107cc81a59cf75081eadb8",
      "function": "mint(address,uint256,string)",
      "arguments": [
        "0xAfd378303EaF596FE90e994B87A55E1ef9eEBdBd",
        "110",
        "https://remilio.org/remilio/json/879"
      ],
      "transaction": {
        "from": "0xafd378303eaf596fe90e994b87a55e1ef9eebdbd",
        "to": "0xd94639ba91cfe09fc2107cc81a59cf75081eadb8",
        "gas": "0x2a50d",
        "value": "0x0",
        "input": "0xd3fc9864000000000000000000000000afd378303eaf596fe90e994b87a55e1ef9eebdbd000000000000000000000000000000000000000000000000000000000000006e0000000000000000000000000000000000000000000000000000000000000060000000000000000000000000000000000000000000000000000000000000002468747470733a2f2f72656d696c696f2e6f72672f72656d696c696f2f6a736f6e2f38373900000000000000000000000000000000000000000000000000000000",
        "nonce": "0x1",
        "chainId": "0x14a34"
      },
      "additionalContracts": [],
      "isFixedGasLimit": false
    }
  ],
  "receipts": [
    {
      "status": "0x1",
      "cumulativeGasUsed": "0x62cae6",
      "logs": [
        {
          "address": "0xd94639ba91cfe09fc2107cc81a59cf75081eadb8",
          "topics": [
            "0xc3d58168c5ae7397731d063d5bbf3d657854427343f4c083240f7aacaa2d0f62",
            "0x000000000000000000000000afd378303eaf596fe90e994b87a55e1ef9eebdbd",
            "0x0000000000000000000000000000000000000000000000000000000000000000",
            "0x000000000000000000000000afd378303eaf596fe90e994b87a55e1ef9eebdbd"
          ],
          "data": "0x0000000000000000000000000000000000000000000000000000000000000001000000000000000000000000000000000000000000000000000000000000006e",
          "blockHash": "0x6227e77e78fa8d055856d610822e9fb1edbdeda7af6cb7a91d02da15f245be3f",
          "blockNumber": "0x1a85f8d",
          "transactionHash": "0x02e5c5fab50853cfb01c16d22cdef4b9a3b0862a2ef59966ba2066de8d675659",
          "transactionIndex": "0x1d",
          "logIndex": "0x9d",
          "removed": false
        }
      ],
      "logsBloom": "0x00000000000000000000000000000000000000000000000000000000000000000000040000000000000000000000000000000000000000000000000000002000000000000000000000000000100000000000000000000000000000000000000000000000020000000000000000000800000000000000000000000000000000000000000000000000000000000008000000000000000000000000000000000000000000000000000000000000402000000000000000000000000000000000000000000000000000000000000000000000000000000008000000000100000020000000000000000000000000000000000000000000000000000000080000000000",
      "type": "0x2",
      "transactionHash": "0x02e5c5fab50853cfb01c16d22cdef4b9a3b0862a2ef59966ba2066de8d675659",
      "transactionIndex": "0x1d",
      "blockHash": "0x6227e77e78fa8d055856d610822e9fb1edbdeda7af6cb7a91d02da15f245be3f",
      "blockNumber": "0x1a85f8d",
      "gasUsed": "0x1ea2d",
      "effectiveGasPrice": "0xd826c",
      "from": "0xafd378303eaf596fe90e994b87a55e1ef9eebdbd",
      "to": "0xd94639ba91cfe09fc2107cc81a59cf75081eadb8",
      "contractAddress": null,
      "l1BaseFeeScalar": "0x44d",
      "l1BlobBaseFee": "0x1",
      "l1BlobBaseFeeScalar": "0xa118b",
      "l1Fee": "0xcd914c4f6",
      "l1GasPrice": "0x595f6084c",
      "l1GasUsed": "0x829"
    }
  ],
  "libraries": [],
  "pending": [],
  "returns": {},
  "timestamp": 1751391739727,
  "chain": 84532,
  "commit": "14b45af"
}