{
  "transactions": [
    {
      "hash": "0x36671253a7ad708c08414e439ce5de3df5c458b4eed1347c117b61024f4514e0",
      "transactionType": "CALL",
      "contractName": null,
      "contractAddress": "0xd94639ba91cfe09fc2107cc81a59cf75081eadb8",
      "function": "mint(address,uint256,string)",
      "arguments": [
        "0x6eeD1727a7a2B7773F256708fb99bFC246270502",
        "1",
        "https://ipfs.io/ipfs/QmT9cJUe8NFwniMTjWHunf6YWgYRdACTyN7uAiZRuXP9ij/171000106548"
      ],
      "transaction": {
        "from": "0xafd378303eaf596fe90e994b87a55e1ef9eebdbd",
        "to": "0xd94639ba91cfe09fc2107cc81a59cf75081eadb8",
        "gas": "0x35dbc",
        "value": "0x0",
        "input": "0xd3fc98640000000000000000000000006eed1727a7a2b7773f256708fb99bfc24627050200000000000000000000000000000000000000000000000000000000000000010000000000000000000000000000000000000000000000000000000000000060000000000000000000000000000000000000000000000000000000000000005068747470733a2f2f697066732e696f2f697066732f516d5439634a5565384e46776e694d546a5748756e6636595767595264414354794e377541695a5275585039696a2f31373130303031303635343800000000000000000000000000000000",
        "nonce": "0x2",
        "chainId": "0x14a34"
      },
      "additionalContracts": [],
      "isFixedGasLimit": false
    }
  ],
  "receipts": [
    {
      "status": "0x1",
      "cumulativeGasUsed": "0x69ac9f",
      "logs": [
        {
          "address": "0xd94639ba91cfe09fc2107cc81a59cf75081eadb8",
          "topics": [
            "0xc3d58168c5ae7397731d063d5bbf3d657854427343f4c083240f7aacaa2d0f62",
            "0x000000000000000000000000afd378303eaf596fe90e994b87a55e1ef9eebdbd",
            "0x0000000000000000000000000000000000000000000000000000000000000000",
            "0x0000000000000000000000006eed1727a7a2b7773f256708fb99bfc246270502"
          ],
          "data": "0x00000000000000000000000000000000000000000000000000000000000000020000000000000000000000000000000000000000000000000000000000000001",
          "blockHash": "0xd4260a783deb144e4f582d266901c92d6d37cdc5244bf640b3556210a7a0d68f",
          "blockNumber": "0x1a85fb1",
          "blockTimestamp": "0x68641e42",
          "transactionHash": "0x36671253a7ad708c08414e439ce5de3df5c458b4eed1347c117b61024f4514e0",
          "transactionIndex": "0x14",
          "logIndex": "0x108",
          "removed": false
        }
      ],
      "logsBloom": "0x00000000000000000000000000000000000000000000000000000000000000000000040000000000000000000000000000000800000000000000000000002000000000000000000000000000100000000000000000000000000000000000000000000000020000000000000000000800100000000000000000000000000000000000000000000000000100000008000000000000000000000000000000000000000000000000000000000000402000000000000000000000000000000000000000000000000000000000000000000000000000000008000000000100000020000000000000000000000000000000000000000000000000000000080000000000",
      "type": "0x2",
      "transactionHash": "0x36671253a7ad708c08414e439ce5de3df5c458b4eed1347c117b61024f4514e0",
      "transactionIndex": "0x14",
      "blockHash": "0xd4260a783deb144e4f582d266901c92d6d37cdc5244bf640b3556210a7a0d68f",
      "blockNumber": "0x1a85fb1",
      "gasUsed": "0x24d39",
      "effectiveGasPrice": "0xcb645",
      "from": "0xafd378303eaf596fe90e994b87a55e1ef9eebdbd",
      "to": "0xd94639ba91cfe09fc2107cc81a59cf75081eadb8",
      "contractAddress": null,
      "l1BaseFeeScalar": "0x44d",
      "l1BlobBaseFee": "0x1",
      "l1BlobBaseFeeScalar": "0xa118b",
      "l1Fee": "0xf7f6be676",
      "l1GasPrice": "0x53442532c",
      "l1GasUsed": "0xa90"
    }
  ],
  "libraries": [],
  "pending": [],
  "returns": {},
  "timestamp": 1751391809255,
  "chain": 84532,
  "commit": "14b45af"
}